{
  "contractName": "MattCoin",
  "abi": [
    {
      "inputs": [],
      "payable": false,
      "stateMutability": "nonpayable",
      "type": "constructor"
    },
    {
      "constant": true,
      "inputs": [],
      "name": "totalSupply",
      "outputs": [
        {
          "internalType": "uint256",
          "name": "",
          "type": "uint256"
        }
      ],
      "payable": false,
      "stateMutability": "view",
      "type": "function"
    }
  ],
  "bytecode": "0x6080604052348015600f57600080fd5b50620f42406000819055506084806100286000396000f3fe6080604052348015600f57600080fd5b506004361060285760003560e01c806318160ddd14602d575b600080fd5b60336049565b6040518082815260200191505060405180910390f35b6000548156fea265627a7a72315820f854cc8fba472e53ab8aad3cd5861a2e20786de73723bb6cac92d90747d61fc564736f6c63430005100032",
  "source": "pragma solidity ^0.5.1;\r\n\r\ncontract MattCoin {\r\n\tuint256 public totalSupply;\r\n\r\n\t// Constructor\r\n\t// Set total number of tokens\r\n\t// Read total number of tokens\r\n\tconstructor() public {\r\n\t\ttotalSupply = 1000000;\r\n\t}\r\n}",
  "sourcePath": "C:/Users/Matt/Documents/test_token/contracts/MattCoin.sol",
  "compiler": {
    "name": "solc",
    "version": "0.5.16+commit.9c3226ce.Emscripten.clang"
  },
  "schemaVersion": "3.3.4",
  "updatedAt": "2021-03-26T16:52:09.438Z",
  "networkType": "ethereum",
  "devdoc": {
    "methods": {}
  },
  "userdoc": {
    "methods": {}
  }
}